:020000040800F2
:2000000000000220F15C0008995200089B5200089D5200089F520008A15200080000000096
:20002000000000000000000000000000A3520008A552000800000000A7520008A9520008C0
:20004000415D0008415D0008415D0008415D0008415D0008415D0008415D0008415D000870
:20006000415D0008415D0008415D0008415D0008B1520008415D0008415D0008415D0008EB
:20008000415D0008415D0008415D0008415D0008415D0008415D0008415D0008C1520008BB
:2000A000415D0008415D0008415D0008415D0008415D0008415D0008415D0008415D000810
:2000C000415D0008415D0008415D0008415D0008415D0008415D0008415D0008415D0008F0
:2000E000415D0008415D0008415D0008415D0008415D0008415D0008415D0008415D0008D0
:20010000415D0008415D0008415D0008415D0008415D0008415D0008415D0008415D0008AF
:20012000415D0008415D0008415D0008415D0008415D00080000000000000000415D0008DB
:20014000415D0008415D0008415D0008415D0008415D0008415D0008415D0008415D00086F
:20016000415D0008415D0008415D0008415D0008415D0008415D0008415D000800000000F5
:2001800000000000415D00080000000000000000415D00080000000000000000415D00086D
:2001A000000000000000000000000000415D0008415D0008415D0008415D0008415D000801
:2001C000415D0008FFFFFFFFFFFFFFFFFFFFFFFF10B5054C237833B9044B13B10448AFF3E7
:2001E00000800123237010BD0C020020000000007867000808B5034B1BB103490348AFF3D6
:20020000008008BD00000000100200207867000853B94AB9002908BF00281CBF4FF0FF310F
:200220004FF0FF3000F072B9ADF1080C6DE904CE00F006F8DDF804E0DDE9022304B070475E
:200240002DE9F047089E04468846002B4BD18A42154667D9B2FA82F24AB1C2F1200701FAF5
:2002600002F320FA07F7954047EA030894404FEA154E230CB8FBFEF71FFA85FC0EFB1788D7
:2002800043EA084307FB0CF1994209D9EB1807F1FF3080F01B81994240F21881023F2B449E
:2002A0005B1AA4B2B3FBFEF00EFB103344EA034400FB0CFCA44509D92C1900F1FF3380F070
:2002C0000781A44540F2048102382C4440EA0740A4EB0C0400271EB1D4400023C6E900431D
:2002E0003946BDE8F0878B4209D9002E00F0EB800027C6E9000138463946BDE8F087B3FA8E
:2003000083F7002F47D18B4202D3824200F2FA80841A61EB030301209846002EE0D0C6E9CE
:200320000048DDE702B9FFDEB2FA82F2002A40F08F80491B4FEA154E1FFA85F80127B1FB26
:20034000FEFC230C0EFB1C1143EA014308FB0CF1994207D9EB180CF1FF3002D2994200F242
:20036000CD808446591AA3B2B1FBFEF00EFB101443EA044408FB00F8A04507D92C1900F16C
:20038000FF3302D2A04500F2B6801846A4EB080440EA0C409FE7C7F1200CBB4022FA0CFE50
:2003A0004EEA030E01FA07F420FA0CF521FA0CF34FEA1E482543B3FBF8F92C0C08FB19339C
:2003C0001FFA8EFA44EA034309FB0AF49C4202FA07F200FA07F10BD91EEB030309F1FF3025
:2003E00080F087809C4240F28480A9F1020973441B1BADB2B3FBF8F008FB103345EA03442F
:2004000000FB0AFAA24508D91EEB040400F1FF336BD2A24569D90238744440EA0940A0FB7B
:200420000289A4EB0A044C45C2464B4654D351D0002E69D0B1EB0A0564EB030404FA0CFCB4
:20044000FD40FC404CEA0505C6E90054002747E7C2F1200320FA03F7954001FA02F021FAC4
:2004600003F34FEA154E3843010CB3FBFEF71FFA85F80EFB173341EA034107FB08F38B429D
:2004800004FA02F407D9691807F1FF3C2FD28B422DD9023F2944CB1A81B2B3FBFEF00EFB95
:2004A000103341EA034100FB08F38B4207D9691800F1FF3C17D28B4215D902382944C91A0C
:2004C00040EA07473BE73746304609E70746E7E61846FBE64145ABD2B8EB020A69EB0E0230
:2004E00001381346A4E76046E9E7184695E76746D1E781467CE702382C4447E7ACF1020C7D
:200500002B442FE7384608E73746E9E6704700BF034613F8012B002AFBD1181A013870478F
:2005200001F0FF01102A2BDB10F0070F08D010F8013B013A8B422DD010F0070F42B3F6D181
:20054000F0B441EA012141EA014122F007047FF000070023F0E80256083C85EA010586EA2E
:20056000010685FA47F5A3FA87F586FA47F6A5FA87F68EB9EED1F0BC01F0FF0102F0070229
:2005800032B110F8013B013A83EA010313B1F8D10020704701387047002D06BF354603388C
:2005A000073815F0010F07D1013015F4807F02BF013015F4C03F0130F0BC0138704700BF50
:2005C00010B504460E4B18784FF47A73B3FBF0F30C4A1068B0FBF3F000F0AAF868B90F2C18
:2005E00001D901200AE0002221464FF0FF3000F05DF8034B5C60002000E0012010BD00BF23
:20060000000000202000002008B50B4B1A6842F400721A601A6842F480621A601A6842F4F7
:2006200080721A60032000F02FF80020FFF7C8FF04F012FE002008BD003C0240034A11680A
:20064000034B1B780B441360704700BF9403002000000020014B1868704700BF94030020B1
:2006600038B50446FFF7F6FF0546B4F1FF3F02D0044B1B781C44FFF7EDFF401BA042FAD32A
:2006800038BD00BF00000020074AD36823F4E0631B041B0C000200F4E060184340F0BF607A
:2006A00040F40030D060704700ED00E030B4174BDB68C3F30223C3F10704042C28BF0424C0
:2006C0001D1D062D18D9033B4FF0FF3505FA04F421EA0401994005FA03F322EA03031943C8
:2006E00000280BDB0901C9B200F1604000F5614080F8001330BC70470023E5E700F00F0024
:200700000901C9B2024B1954F4E700BF00ED00E014ED00E0002807DB00F01F0240090123CA
:200720009340024A42F82030704700BF00E100E00138B0F1807F0AD2064B5860064AF021BA
:2007400082F823100020986007221A6070470120704700BF10E000E000ED00E030B40568F5
:200760002C6824F480242C60046863608368402B05D0036899600368DA6030BC704703682C
:200780009A600368D960F8E70268D3B2103B0B49A1FB03131B090A49C95CC165032B06D8CE
:2007A00022F47F7222F003028265806D704722F47F7222F0030204328265F6E7ABAAAAAACF
:2007C00090670008836A826992B9012B0AD01BB1022B01D000207047C36A13F0807F2CD124
:2007E00000207047C36AB3F1C07F28D000207047B2F5005F05D0022B29D9032B15D0002006
:200800007047032B03D8DFE803F01C041C0A00207047C36A13F0807F15D100207047C36A28
:20082000B3F1C07F11D000207047C36A13F0807F01D0012070470020704701207047012075
:20084000704701207047012070470120704701207047000070B50446FFF7FCFE002C5BD0CB
:200860000546002384F83430022384F835302268136823F00103136023681A6812F0010F76
:200880000AD0FFF7E7FE401B0528F5D920236365032084F8350070BD1A682048104061683E
:2008A000A2680A43E1680A4321690A4361690A43A1690A43E1690A43216A0A430243616A87
:2008C00004291ED01A602668756925F00705636A1D43042B07D1A36A1D43E36A1BB12046D6
:2008E000FFF770FF90B975612046FFF74DFFE26D3F239340836000206065012384F835307B
:20090000C9E7E16A206B01430A43DBE740236365012084F83500BEE70120BCE73F8010F0D9
:2009200038B5856D90F83440012C31D0012480F8344090F83540E4B2012C04D0002380F86E
:200940003430022038BD0446022084F83500002060652046FFF702FFE26D3F239340AB602E
:200960002268136843F0160313602268536943F080035361236C23B12268136843F008035D
:2009800013602268136843F0010313600020D9E70220D7E7F0B583B0044600230193724BDF
:2009A0001D68724BA3FB0535AD0A876D3E68C26D08239340334210D003681A6812F0040F48
:2009C0000BD01A6822F004021A60C26D08239340BB60436D43F001034365E26D012393400B
:2009E000334209D02268526912F0800F04D0BB60636D43F002036365E26D04239340334256
:200A000009D02268126812F0020F04D0BB60636D43F004036365E26D10239340334224D067
:200A20002268126812F0080F1FD0BB6023681A6812F4802F0DD01B6813F4002F04D1236CD3
:200A40009BB12046984710E0A36C73B1204698470BE01A6812F4807F03D11A6822F00802B9
:200A60001A60236C0BB120469847E26D20239340334255D02268126812F0100F50D0BB600D
:200A800094F83530DBB2052B0ED023681A6812F4802F33D01B6813F4002F2AD1636C002B57
:200AA0003ED0204698473BE02268136823F0160313602268536923F080035361236CA3B1B1
:200AC0002268136823F008031360E26D3F239340BB60002384F83430012384F83530236D49
:200AE000002B3FD0204698473CE0A36C002BE7D1EBE7E36BA3B12046984711E01A6812F437
:200B0000807F09D11A6822F010021A60002384F83430012384F83530E36B0BB12046984785
:200B2000636DFBB1636D13F0010F17D0052384F835302268136823F001031360019B013307
:200B40000193AB4204D823681B6813F0010FF5D1002384F83430012384F83530E36C0BB13E
:200B60002046984703B0F0BD20000020B5814E1B00230F2B00F2D180F0B482B039E006223A
:200B800000E00022B2403A430234644E46F82420634A1468EA4302EA04064F6817F4803FAD
:200BA00001D045EA04065E4C2660646802EA04064F6817F4003F01D045EA0406584C6660C4
:200BC000A46802EA04064F6817F4801F01D045EA0406534CA660E46822404E6816F4001F76
:200BE00001D045EA04024E4CE26001330F2B00F2918001229A400C6804EA0205AA42F4D18B
:200C00004C68022C01D0122C10D1DE08083650F826C003F00704A7000F24BC402CEA040CB6
:200C20000C69BC4044EA0C0440F8264004685F000326BE40F64306EA040C4C6804F003048D
:200C4000BC4044EA0C0404604C6804F1FF3CBCF1010F03D9112C01D0122C10D1846806EA70
:200C6000040CCC68BC4044EA0C048460446824EA02024C68C4F300149C4014434460C268D4
:200C800016408A68BA403243C2604A6812F0805FABD000220192234A546C44F480445464D7
:200CA000526C02F480420192019A9C08A61C1B4A52F8267003F0030296000F22B24027EA23
:200CC0000207194A90423FF45CAF02F58062904216D002F58062904214D002F580629042CD
:200CE00012D002F58062904210D002F5806290420ED002F5806290423FF441AF072241E7DF
:200D000001223FE702223DE703223BE7042239E7052237E702B0F0BC70477047003801402B
:200D2000003C0140003802400000024012B9090481617047816170477047000008B5054BAC
:200D40005B69034200D108BD024B5861FFF7F4FFF9E700BF003C014010B582B0002301933B
:200D6000194B1A6C42F080521A641B6C03F080530193019B154B01221A60FFF76BFC0446E6
:200D8000134B5B6813F4803F08D1FFF763FC001BB0F57A7FF4D9032002B010BD0D4B01229B
:200DA0001A60FFF757FC0446094B5B6813F4003F07D1FFF74FFC001BB0F57A7FF4D9032007
:200DC000EAE70020E8E700BF0038024040000E420070004044000E42002800F09D8070B5EC
:200DE00004464F4B1B6803F00F038B4209D2CBB24B4A1370136803F00F038B4201D001200B
:200E000070BD236813F0020F17D013F0040F04D0444A936843F4E0539360236813F0080FAA
:200E200004D0404A936843F4604393603D4A936823F0F003A068034393600D46236813F0E2
:200E4000010F32D06368012B21D09A1E012A25D9344A126812F0020F60D032498A6822F0FD
:200E6000030213438B60FFF7F5FB06462D4B9B6803F00C036268B3EB820F16D0FFF7EAFBC3
:200E8000801B41F288339842F0D90320B8E7254A126812F4003FE0D10120B1E7214A1268E7
:200EA00012F0007FD9D10120AAE71D4B1B6803F00F03AB4209D9EAB2194B1A701B6803F096
:200EC0000F03AB4201D001209AE7236813F0040F06D0144A936823F4E053E1680B439360FC
:200EE000236813F0080F07D00E4A936823F46043216943EAC103936000F040F8094B9B687C
:200F0000C3F30313084AD35CD840084B18600020FFF756FB002073E70120704701206FE771
:200F2000003C0240003802408874000820000020014B1868704700BF2000002008B5FFF740
:200F4000F7FF044B9B68C3F38223034AD35CD84008BD00BF003802409874000808B5FFF795
:200F6000E7FF044B9B68C3F34233034AD35CD84008BD00BF00380240987400082DE9F04B17
:200F80005C4B9B6803F00C03082B07D00C2B5BD0042B00F0AD805848BDE8F08B554B5A68CB
:200FA00002F03F025B6813F4800F2AD0514B5B68C3F388131E4600275C010025E41A65EBA0
:200FC0000705A90141EA9461A001001B61EB0501CB0043EA5073C400A01943EB07014B0272
:200FE00043EAD0534402204619460023FFF710F9404B5B68C3F3014301335B00B0FBF3F00F
:20100000CAE73C4B5B68C3F388131E4600275C010025E41A65EB0705A90141EA9461A001B2
:20102000001B61EB0501CB0043EA5073C400A01943EB07018B0243EA9053840220461946ED
:201040000023FFF7E5F8D3E72A4B5A6802F03F025B6813F4800F28D0264B5B68C3F38813A0
:201060001E4600275C010025E41A65EB0705A90141EA9461A001001B61EB0501CB0043EA39
:201080005073C400A01943EB07014B0243EAD0534402204619460023FFF7BAF8154B5B6844
:2010A000C3F30273B0FBF3F076E7124B5B68C3F388131E4600275C010025E41A65EB070542
:2010C000A90141EA9461A001001B61EB0501CB0043EA5073C400A01943EB07018B0243EA10
:2010E00090538402204619460023FFF791F8D5E7024851E7003802400024F40000127A00C4
:2011000070B582B00446036813F0010F41D0A64B9B6803F00C03042B32D0A34B9B6803F094
:201120000C03082B27D0A04B9B6803F00C030C2B59D06368B3F5803F5BD0B3F5A02F5ED024
:20114000994B1A6822F480321A601A6822F480221A606368002B5CD0FFF77CFA0546924B7D
:201160001B6813F4003F14D1FFF774FA401B6428F5D903209DE18C4B5B6813F4800FD2D035
:20118000894B1B6813F4003F03D06368002B00F08D81236813F0020F67D0834B9B6813F041
:2011A0000C0F4AD0804B9B6803F00C03082B3FD07D4B9B6803F00C030C2B48D0E368002B56
:2011C00074D07A4B01221A60FFF744FA0546764B1B6813F0020F60D1FFF73CFA401B0228B0
:2011E000F5D9032065E1704B5B6813F4800FA0D0C6E76D4A136843F480331360A9E76A4BB3
:201200001A6842F480221A601A6842F480321A609FE7FFF71FFA0546634B1B6813F4003FBF
:20122000B7D0FFF717FA401B6428F5D9032040E15D4B5B6813F4800FBAD15B4B1B6813F06F
:20124000020F0AD0E368012B07D0012031E1564B5B6813F4800FB1D1EFE7534A136823F0A5
:20126000F803216943EAC1031360236813F0080F40D0636963B34E4B01221A60FFF7EAF9DF
:201280000546494B5B6F13F0020F33D1FFF7E2F9401B0228F5D903200BE1434A136823F03F
:2012A000F803216943EAC1031360DEE73F4B00221A60FFF7CFF905463B4B1B6813F0020F34
:2012C000D3D0FFF7C7F9401B0228F5D90320F0E0374B00221A60FFF7BDF90546324B5B6F13
:2012E00013F0020F06D0FFF7B5F9401B0228F5D90320DEE0236813F0040F79D02A4B1B6C46
:2013000013F0805F33D100230193274B1A6C42F080521A641B6C03F080530193019B012513
:20132000244B1B6813F4807F23D0A368012B34D0052B41D01C4B1A6F22F001021A671A6F37
:2013400022F004021A67A368002B3FD0FFF782F90646154B1B6F13F0020F48D1FFF77AF972
:20136000801B41F288339842F3D90320A1E00025D6E7104A136843F480731360FFF76AF9ED
:2013800006460C4B1B6813F4807FCED1FFF762F9801B0228F5D903208BE0034A136F43F00E
:2013A00001031367CFE700BF0038024000004742800E474200700040404B1A6F42F0040224
:2013C0001A671A6F42F001021A67BCE7FFF742F906463A4B1B6F13F0020F08D0FFF73AF909
:2013E000801B41F288339842F3D9032061E0E5B9A369002B5CD0314A926802F00C02082AB2
:2014000059D0022B17D02E4B00221A60FFF722F904462A4B1B6813F0007F45D0FFF71AF987
:20142000001B0228F5D9032043E0244A136C23F080531364DCE7224B00221A60FFF70AF944
:2014400005461E4B1B6813F0007F06D0FFF702F9401B0228F5D903202BE0E369226A13435D
:20146000626A43EA8213A26A5208013A43EA0243E26A43EA0263226B43EA02730F4A5360B2
:201480000F4B01221A60FFF7E5F804460B4B1B6813F0007F06D1FFF7DDF8001B0228F5D928
:2014A000032006E0002004E0002002E0012000E0002002B070BD0120FBE700BF00380240E1
:2014C00060004742F8B505460F4616461C462B689B6837EA03030CBF01230023B34237D04D
:2014E000B4F1FF3FF3D0FFF7B5F8069BC01AA04201D2002CEBD12A68536823F0E003536095
:201500006B68B3F5827F0BD0AB6AB3F5005F14D0012385F85130002385F85030032018E017
:20152000AB68B3F5004F02D0B3F5806FECD12A68136823F040031360E6E72A68136823F4B4
:20154000005313602A68136843F400531360DFE70020F8BD30B585B0164C2468164DA5FB15
:201560000434640D4FF47A7505FB04F403944468B4F5827F0BD0039BC3B1039B013B03934E
:2015800003689B6813F0800FF5D100230FE00B460446009200228021FFF794FF034630B1D0
:2015A000636D43F020036365032300E00023184605B030BD20000020819F5E1600283BD00D
:2015C00010B504460023836290F85130002B2ED0022384F851302268136823F040031360D2
:2015E0006368A2681343E26813432269134362691343A26902F400721343E2691343226A28
:201600001343A16A22680B431360638B03F00403616A22680B4353602268D36923F40063A0
:20162000D36100206065012384F8513010BD80F8503003F0D7FDCBE7012070472DE9F04113
:2016400082B090F85040012C00F0C3801D46174688460446012380F85030FEF7FBFF0646B1
:2016600094F85130DBB2012B09D00220012384F85130002384F8503002B0BDE8F081B8F1F8
:20168000000F00F09880002F00F09780032384F8513000236365C4F83080A786E786A363E3
:2016A000A387E38763642364A368B3F5004F1CD023681A6812F0400F03D11A6842F0400232
:2016C0001A60E368B3F5006F15D063680BB1012F49D1226B236812781A73236B0133236301
:2016E000E38E013B9BB2E3863DE02268136843F480431360DCE763680BB1012F15D1226B0B
:1817000023681288DA60236B02332363E38E013B9BB2E38609E0FEF7E8
:00000001FF
